{"contracts/BasicDutchAuction.sol":{"BasicDutchAuction":{"abi":[{"inputs":[{"internalType":"uint256","name":"_reservePrice","type":"uint256"},{"internalType":"uint256","name":"_numBlocksAuctionOpen","type":"uint256"},{"internalType":"uint256","name":"_offerPriceDecrement","type":"uint256"}],"stateMutability":"nonpayable","type":"constructor"},{"inputs":[],"name":"bid","outputs":[{"internalType":"address","name":"","type":"address"}],"stateMutability":"payable","type":"function"}],"evm":{"bytecode":{"linkReferences":{},"object":"60806040523480156200001157600080fd5b50604051620009303803806200093083398181016040528101906200003791906200020b565b6200005367d01aa6915708285060c01b620001c860201b60201c565b6200006f67fa2f58e87d747a1660c01b620001c860201b60201c565b8260008190555062000092679a7066024e5f335160c01b620001c860201b60201c565b81600181905550620000b5672550919ddc5ce4fe60c01b620001c860201b60201c565b80600281905550620000d867b17effca0cbbca5060c01b620001c860201b60201c565b8082620000e6919062000296565b83620000f39190620002e1565b600381905550620001156773e787b47bc6aa2560c01b620001c860201b60201c565b60015443620001259190620002e1565b6006819055506200014767fe37908ea396020a60c01b620001c860201b60201c565b6000600760006101000a81548160ff0219169083151502179055506200017e67c3271f4d397f590a60c01b620001c860201b60201c565b33600460006101000a81548173ffffffffffffffffffffffffffffffffffffffff021916908373ffffffffffffffffffffffffffffffffffffffff1602179055505050506200031c565b50565b600080fd5b6000819050919050565b620001e581620001d0565b8114620001f157600080fd5b50565b6000815190506200020581620001da565b92915050565b600080600060608486031215620002275762000226620001cb565b5b60006200023786828701620001f4565b93505060206200024a86828701620001f4565b92505060406200025d86828701620001f4565b9150509250925092565b7f4e487b7100000000000000000000000000000000000000000000000000000000600052601160045260246000fd5b6000620002a382620001d0565b9150620002b083620001d0565b9250828202620002c081620001d0565b91508282048414831517620002da57620002d962000267565b5b5092915050565b6000620002ee82620001d0565b9150620002fb83620001d0565b925082820190508082111562000316576200031562000267565b5b92915050565b610604806200032c6000396000f3fe60806040526004361061001e5760003560e01c80631998aeef14610023575b600080fd5b61002b610041565b60405161003891906103ec565b60405180910390f35b6000610057679306b47f883df26360c01b6103a8565b61006b6740bb30eec12cba0b60c01b6103a8565b61007f67869c24b37c4089dc60c01b6103a8565b6100936786e5ceb4bcc0941a60c01b6103a8565b6006544311156100d8576040517f08c379a00000000000000000000000000000000000000000000000000000000081526004016100cf9061048a565b60405180910390fd5b6100ec67549c6ef2b2c6eefd60c01b6103a8565b61010067d5b3ee404e92bf9560c01b6103a8565b6101146773ed8268c5ac9ef760c01b6103a8565b610128671f6a9cf119f4faba60c01b6103a8565b60035434101561016d576040517f08c379a00000000000000000000000000000000000000000000000000000000081526004016101649061051c565b60405180910390fd5b610181672ce660ef7b907e0f60c01b6103a8565b610195676a4b0953cd93da7a60c01b6103a8565b6101a967607c6352770cfdf660c01b6103a8565b6101bd677c6e5fd355d131fd60c01b6103a8565b60001515600760009054906101000a900460ff16151514610213576040517f08c379a000000000000000000000000000000000000000000000000000000000815260040161020a906105ae565b60405180910390fd5b610227672886850e1c711aca60c01b6103a8565b61023b678c16f48db8ce653760c01b6103a8565b33600560006101000a81548173ffffffffffffffffffffffffffffffffffffffff021916908373ffffffffffffffffffffffffffffffffffffffff160217905550610290673db909b81534315660c01b6103a8565b60006003819055506102ac6774caf45a6676270f60c01b6103a8565b6001600760006101000a81548160ff0219169083151502179055506102db6737fb9432e54bcb6460c01b6103a8565b6102ef67b0fff65fdaa11b1160c01b6103a8565b600460009054906101000a900473ffffffffffffffffffffffffffffffffffffffff1673ffffffffffffffffffffffffffffffffffffffff166108fc349081150290604051600060405180830381858888f19350505050158015610357573d6000803e3d6000fd5b5061036c6712b1561432c6075060c01b6103a8565b610380671e25c4afc32a1ad960c01b6103a8565b600560009054906101000a900473ffffffffffffffffffffffffffffffffffffffff16905090565b50565b600073ffffffffffffffffffffffffffffffffffffffff82169050919050565b60006103d6826103ab565b9050919050565b6103e6816103cb565b82525050565b600060208201905061040160008301846103dd565b92915050565b600082825260208201905092915050565b7f41756374696f6e2068617320616c726561647920656e6465642e4e6f206d6f7260008201527f6520626964730000000000000000000000000000000000000000000000000000602082015250565b6000610474602683610407565b915061047f82610418565b604082019050919050565b600060208201905081810360008301526104a381610467565b9050919050565b7f4269642076616c7565206973206c657373207468616e2063757272656e74207060008201527f726963652e000000000000000000000000000000000000000000000000000000602082015250565b6000610506602583610407565b9150610511826104aa565b604082019050919050565b60006020820190508181036000830152610535816104f9565b9050919050565b7f57696e6e657220686173206265656e2063686f73656e2e204e6f206d6f72652060008201527f62696464696e672e2041756374696f6e20636c6f736564000000000000000000602082015250565b6000610598603783610407565b91506105a38261053c565b604082019050919050565b600060208201905081810360008301526105c78161058b565b905091905056fea26469706673582212202c2c9d4286c0b63b012c074932715473e154eb7979668dd03053877aa15d72ef64736f6c63430008110033","opcodes":"PUSH1 0x80 PUSH1 0x40 MSTORE CALLVALUE DUP1 ISZERO PUSH3 0x11 JUMPI PUSH1 0x0 DUP1 REVERT JUMPDEST POP PUSH1 0x40 MLOAD PUSH3 0x930 CODESIZE SUB DUP1 PUSH3 0x930 DUP4 CODECOPY DUP2 DUP2 ADD PUSH1 0x40 MSTORE DUP2 ADD SWAP1 PUSH3 0x37 SWAP2 SWAP1 PUSH3 0x20B JUMP JUMPDEST PUSH3 0x53 PUSH8 0xD01AA69157082850 PUSH1 0xC0 SHL PUSH3 0x1C8 PUSH1 0x20 SHL PUSH1 0x20 SHR JUMP JUMPDEST PUSH3 0x6F PUSH8 0xFA2F58E87D747A16 PUSH1 0xC0 SHL PUSH3 0x1C8 PUSH1 0x20 SHL PUSH1 0x20 SHR JUMP JUMPDEST DUP3 PUSH1 0x0 DUP2 SWAP1 SSTORE POP PUSH3 0x92 PUSH8 0x9A7066024E5F3351 PUSH1 0xC0 SHL PUSH3 0x1C8 PUSH1 0x20 SHL PUSH1 0x20 SHR JUMP JUMPDEST DUP2 PUSH1 0x1 DUP2 SWAP1 SSTORE POP PUSH3 0xB5 PUSH8 0x2550919DDC5CE4FE PUSH1 0xC0 SHL PUSH3 0x1C8 PUSH1 0x20 SHL PUSH1 0x20 SHR JUMP JUMPDEST DUP1 PUSH1 0x2 DUP2 SWAP1 SSTORE POP PUSH3 0xD8 PUSH8 0xB17EFFCA0CBBCA50 PUSH1 0xC0 SHL PUSH3 0x1C8 PUSH1 0x20 SHL PUSH1 0x20 SHR JUMP JUMPDEST DUP1 DUP3 PUSH3 0xE6 SWAP2 SWAP1 PUSH3 0x296 JUMP JUMPDEST DUP4 PUSH3 0xF3 SWAP2 SWAP1 PUSH3 0x2E1 JUMP JUMPDEST PUSH1 0x3 DUP2 SWAP1 SSTORE POP PUSH3 0x115 PUSH8 0x73E787B47BC6AA25 PUSH1 0xC0 SHL PUSH3 0x1C8 PUSH1 0x20 SHL PUSH1 0x20 SHR JUMP JUMPDEST PUSH1 0x1 SLOAD NUMBER PUSH3 0x125 SWAP2 SWAP1 PUSH3 0x2E1 JUMP JUMPDEST PUSH1 0x6 DUP2 SWAP1 SSTORE POP PUSH3 0x147 PUSH8 0xFE37908EA396020A PUSH1 0xC0 SHL PUSH3 0x1C8 PUSH1 0x20 SHL PUSH1 0x20 SHR JUMP JUMPDEST PUSH1 0x0 PUSH1 0x7 PUSH1 0x0 PUSH2 0x100 EXP DUP2 SLOAD DUP2 PUSH1 0xFF MUL NOT AND SWAP1 DUP4 ISZERO ISZERO MUL OR SWAP1 SSTORE POP PUSH3 0x17E PUSH8 0xC3271F4D397F590A PUSH1 0xC0 SHL PUSH3 0x1C8 PUSH1 0x20 SHL PUSH1 0x20 SHR JUMP JUMPDEST CALLER PUSH1 0x4 PUSH1 0x0 PUSH2 0x100 EXP DUP2 SLOAD DUP2 PUSH20 0xFFFFFFFFFFFFFFFFFFFFFFFFFFFFFFFFFFFFFFFF MUL NOT AND SWAP1 DUP4 PUSH20 0xFFFFFFFFFFFFFFFFFFFFFFFFFFFFFFFFFFFFFFFF AND MUL OR SWAP1 SSTORE POP POP POP POP PUSH3 0x31C JUMP JUMPDEST POP JUMP JUMPDEST PUSH1 0x0 DUP1 REVERT JUMPDEST PUSH1 0x0 DUP2 SWAP1 POP SWAP2 SWAP1 POP JUMP JUMPDEST PUSH3 0x1E5 DUP2 PUSH3 0x1D0 JUMP JUMPDEST DUP2 EQ PUSH3 0x1F1 JUMPI PUSH1 0x0 DUP1 REVERT JUMPDEST POP JUMP JUMPDEST PUSH1 0x0 DUP2 MLOAD SWAP1 POP PUSH3 0x205 DUP2 PUSH3 0x1DA JUMP JUMPDEST SWAP3 SWAP2 POP POP JUMP JUMPDEST PUSH1 0x0 DUP1 PUSH1 0x0 PUSH1 0x60 DUP5 DUP7 SUB SLT ISZERO PUSH3 0x227 JUMPI PUSH3 0x226 PUSH3 0x1CB JUMP JUMPDEST JUMPDEST PUSH1 0x0 PUSH3 0x237 DUP7 DUP3 DUP8 ADD PUSH3 0x1F4 JUMP JUMPDEST SWAP4 POP POP PUSH1 0x20 PUSH3 0x24A DUP7 DUP3 DUP8 ADD PUSH3 0x1F4 JUMP JUMPDEST SWAP3 POP POP PUSH1 0x40 PUSH3 0x25D DUP7 DUP3 DUP8 ADD PUSH3 0x1F4 JUMP JUMPDEST SWAP2 POP POP SWAP3 POP SWAP3 POP SWAP3 JUMP JUMPDEST PUSH32 0x4E487B7100000000000000000000000000000000000000000000000000000000 PUSH1 0x0 MSTORE PUSH1 0x11 PUSH1 0x4 MSTORE PUSH1 0x24 PUSH1 0x0 REVERT JUMPDEST PUSH1 0x0 PUSH3 0x2A3 DUP3 PUSH3 0x1D0 JUMP JUMPDEST SWAP2 POP PUSH3 0x2B0 DUP4 PUSH3 0x1D0 JUMP JUMPDEST SWAP3 POP DUP3 DUP3 MUL PUSH3 0x2C0 DUP2 PUSH3 0x1D0 JUMP JUMPDEST SWAP2 POP DUP3 DUP3 DIV DUP5 EQ DUP4 ISZERO OR PUSH3 0x2DA JUMPI PUSH3 0x2D9 PUSH3 0x267 JUMP JUMPDEST JUMPDEST POP SWAP3 SWAP2 POP POP JUMP JUMPDEST PUSH1 0x0 PUSH3 0x2EE DUP3 PUSH3 0x1D0 JUMP JUMPDEST SWAP2 POP PUSH3 0x2FB DUP4 PUSH3 0x1D0 JUMP JUMPDEST SWAP3 POP DUP3 DUP3 ADD SWAP1 POP DUP1 DUP3 GT ISZERO PUSH3 0x316 JUMPI PUSH3 0x315 PUSH3 0x267 JUMP JUMPDEST JUMPDEST SWAP3 SWAP2 POP POP JUMP JUMPDEST PUSH2 0x604 DUP1 PUSH3 0x32C PUSH1 0x0 CODECOPY PUSH1 0x0 RETURN INVALID PUSH1 0x80 PUSH1 0x40 MSTORE PUSH1 0x4 CALLDATASIZE LT PUSH2 0x1E JUMPI PUSH1 0x0 CALLDATALOAD PUSH1 0xE0 SHR DUP1 PUSH4 0x1998AEEF EQ PUSH2 0x23 JUMPI JUMPDEST PUSH1 0x0 DUP1 REVERT JUMPDEST PUSH2 0x2B PUSH2 0x41 JUMP JUMPDEST PUSH1 0x40 MLOAD PUSH2 0x38 SWAP2 SWAP1 PUSH2 0x3EC JUMP JUMPDEST PUSH1 0x40 MLOAD DUP1 SWAP2 SUB SWAP1 RETURN JUMPDEST PUSH1 0x0 PUSH2 0x57 PUSH8 0x9306B47F883DF263 PUSH1 0xC0 SHL PUSH2 0x3A8 JUMP JUMPDEST PUSH2 0x6B PUSH8 0x40BB30EEC12CBA0B PUSH1 0xC0 SHL PUSH2 0x3A8 JUMP JUMPDEST PUSH2 0x7F PUSH8 0x869C24B37C4089DC PUSH1 0xC0 SHL PUSH2 0x3A8 JUMP JUMPDEST PUSH2 0x93 PUSH8 0x86E5CEB4BCC0941A PUSH1 0xC0 SHL PUSH2 0x3A8 JUMP JUMPDEST PUSH1 0x6 SLOAD NUMBER GT ISZERO PUSH2 0xD8 JUMPI PUSH1 0x40 MLOAD PUSH32 0x8C379A000000000000000000000000000000000000000000000000000000000 DUP2 MSTORE PUSH1 0x4 ADD PUSH2 0xCF SWAP1 PUSH2 0x48A JUMP JUMPDEST PUSH1 0x40 MLOAD DUP1 SWAP2 SUB SWAP1 REVERT JUMPDEST PUSH2 0xEC PUSH8 0x549C6EF2B2C6EEFD PUSH1 0xC0 SHL PUSH2 0x3A8 JUMP JUMPDEST PUSH2 0x100 PUSH8 0xD5B3EE404E92BF95 PUSH1 0xC0 SHL PUSH2 0x3A8 JUMP JUMPDEST PUSH2 0x114 PUSH8 0x73ED8268C5AC9EF7 PUSH1 0xC0 SHL PUSH2 0x3A8 JUMP JUMPDEST PUSH2 0x128 PUSH8 0x1F6A9CF119F4FABA PUSH1 0xC0 SHL PUSH2 0x3A8 JUMP JUMPDEST PUSH1 0x3 SLOAD CALLVALUE LT ISZERO PUSH2 0x16D JUMPI PUSH1 0x40 MLOAD PUSH32 0x8C379A000000000000000000000000000000000000000000000000000000000 DUP2 MSTORE PUSH1 0x4 ADD PUSH2 0x164 SWAP1 PUSH2 0x51C JUMP JUMPDEST PUSH1 0x40 MLOAD DUP1 SWAP2 SUB SWAP1 REVERT JUMPDEST PUSH2 0x181 PUSH8 0x2CE660EF7B907E0F PUSH1 0xC0 SHL PUSH2 0x3A8 JUMP JUMPDEST PUSH2 0x195 PUSH8 0x6A4B0953CD93DA7A PUSH1 0xC0 SHL PUSH2 0x3A8 JUMP JUMPDEST PUSH2 0x1A9 PUSH8 0x607C6352770CFDF6 PUSH1 0xC0 SHL PUSH2 0x3A8 JUMP JUMPDEST PUSH2 0x1BD PUSH8 0x7C6E5FD355D131FD PUSH1 0xC0 SHL PUSH2 0x3A8 JUMP JUMPDEST PUSH1 0x0 ISZERO ISZERO PUSH1 0x7 PUSH1 0x0 SWAP1 SLOAD SWAP1 PUSH2 0x100 EXP SWAP1 DIV PUSH1 0xFF AND ISZERO ISZERO EQ PUSH2 0x213 JUMPI PUSH1 0x40 MLOAD PUSH32 0x8C379A000000000000000000000000000000000000000000000000000000000 DUP2 MSTORE PUSH1 0x4 ADD PUSH2 0x20A SWAP1 PUSH2 0x5AE JUMP JUMPDEST PUSH1 0x40 MLOAD DUP1 SWAP2 SUB SWAP1 REVERT JUMPDEST PUSH2 0x227 PUSH8 0x2886850E1C711ACA PUSH1 0xC0 SHL PUSH2 0x3A8 JUMP JUMPDEST PUSH2 0x23B PUSH8 0x8C16F48DB8CE6537 PUSH1 0xC0 SHL PUSH2 0x3A8 JUMP JUMPDEST CALLER PUSH1 0x5 PUSH1 0x0 PUSH2 0x100 EXP DUP2 SLOAD DUP2 PUSH20 0xFFFFFFFFFFFFFFFFFFFFFFFFFFFFFFFFFFFFFFFF MUL NOT AND SWAP1 DUP4 PUSH20 0xFFFFFFFFFFFFFFFFFFFFFFFFFFFFFFFFFFFFFFFF AND MUL OR SWAP1 SSTORE POP PUSH2 0x290 PUSH8 0x3DB909B815343156 PUSH1 0xC0 SHL PUSH2 0x3A8 JUMP JUMPDEST PUSH1 0x0 PUSH1 0x3 DUP2 SWAP1 SSTORE POP PUSH2 0x2AC PUSH8 0x74CAF45A6676270F PUSH1 0xC0 SHL PUSH2 0x3A8 JUMP JUMPDEST PUSH1 0x1 PUSH1 0x7 PUSH1 0x0 PUSH2 0x100 EXP DUP2 SLOAD DUP2 PUSH1 0xFF MUL NOT AND SWAP1 DUP4 ISZERO ISZERO MUL OR SWAP1 SSTORE POP PUSH2 0x2DB PUSH8 0x37FB9432E54BCB64 PUSH1 0xC0 SHL PUSH2 0x3A8 JUMP JUMPDEST PUSH2 0x2EF PUSH8 0xB0FFF65FDAA11B11 PUSH1 0xC0 SHL PUSH2 0x3A8 JUMP JUMPDEST PUSH1 0x4 PUSH1 0x0 SWAP1 SLOAD SWAP1 PUSH2 0x100 EXP SWAP1 DIV PUSH20 0xFFFFFFFFFFFFFFFFFFFFFFFFFFFFFFFFFFFFFFFF AND PUSH20 0xFFFFFFFFFFFFFFFFFFFFFFFFFFFFFFFFFFFFFFFF AND PUSH2 0x8FC CALLVALUE SWAP1 DUP2 ISZERO MUL SWAP1 PUSH1 0x40 MLOAD PUSH1 0x0 PUSH1 0x40 MLOAD DUP1 DUP4 SUB DUP2 DUP6 DUP9 DUP9 CALL SWAP4 POP POP POP POP ISZERO DUP1 ISZERO PUSH2 0x357 JUMPI RETURNDATASIZE PUSH1 0x0 DUP1 RETURNDATACOPY RETURNDATASIZE PUSH1 0x0 REVERT JUMPDEST POP PUSH2 0x36C PUSH8 0x12B1561432C60750 PUSH1 0xC0 SHL PUSH2 0x3A8 JUMP JUMPDEST PUSH2 0x380 PUSH8 0x1E25C4AFC32A1AD9 PUSH1 0xC0 SHL PUSH2 0x3A8 JUMP JUMPDEST PUSH1 0x5 PUSH1 0x0 SWAP1 SLOAD SWAP1 PUSH2 0x100 EXP SWAP1 DIV PUSH20 0xFFFFFFFFFFFFFFFFFFFFFFFFFFFFFFFFFFFFFFFF AND SWAP1 POP SWAP1 JUMP JUMPDEST POP JUMP JUMPDEST PUSH1 0x0 PUSH20 0xFFFFFFFFFFFFFFFFFFFFFFFFFFFFFFFFFFFFFFFF DUP3 AND SWAP1 POP SWAP2 SWAP1 POP JUMP JUMPDEST PUSH1 0x0 PUSH2 0x3D6 DUP3 PUSH2 0x3AB JUMP JUMPDEST SWAP1 POP SWAP2 SWAP1 POP JUMP JUMPDEST PUSH2 0x3E6 DUP2 PUSH2 0x3CB JUMP JUMPDEST DUP3 MSTORE POP POP JUMP JUMPDEST PUSH1 0x0 PUSH1 0x20 DUP3 ADD SWAP1 POP PUSH2 0x401 PUSH1 0x0 DUP4 ADD DUP5 PUSH2 0x3DD JUMP JUMPDEST SWAP3 SWAP2 POP POP JUMP JUMPDEST PUSH1 0x0 DUP3 DUP3 MSTORE PUSH1 0x20 DUP3 ADD SWAP1 POP SWAP3 SWAP2 POP POP JUMP JUMPDEST PUSH32 0x41756374696F6E2068617320616C726561647920656E6465642E4E6F206D6F72 PUSH1 0x0 DUP3 ADD MSTORE PUSH32 0x6520626964730000000000000000000000000000000000000000000000000000 PUSH1 0x20 DUP3 ADD MSTORE POP JUMP JUMPDEST PUSH1 0x0 PUSH2 0x474 PUSH1 0x26 DUP4 PUSH2 0x407 JUMP JUMPDEST SWAP2 POP PUSH2 0x47F DUP3 PUSH2 0x418 JUMP JUMPDEST PUSH1 0x40 DUP3 ADD SWAP1 POP SWAP2 SWAP1 POP JUMP JUMPDEST PUSH1 0x0 PUSH1 0x20 DUP3 ADD SWAP1 POP DUP2 DUP2 SUB PUSH1 0x0 DUP4 ADD MSTORE PUSH2 0x4A3 DUP2 PUSH2 0x467 JUMP JUMPDEST SWAP1 POP SWAP2 SWAP1 POP JUMP JUMPDEST PUSH32 0x4269642076616C7565206973206C657373207468616E2063757272656E742070 PUSH1 0x0 DUP3 ADD MSTORE PUSH32 0x726963652E000000000000000000000000000000000000000000000000000000 PUSH1 0x20 DUP3 ADD MSTORE POP JUMP JUMPDEST PUSH1 0x0 PUSH2 0x506 PUSH1 0x25 DUP4 PUSH2 0x407 JUMP JUMPDEST SWAP2 POP PUSH2 0x511 DUP3 PUSH2 0x4AA JUMP JUMPDEST PUSH1 0x40 DUP3 ADD SWAP1 POP SWAP2 SWAP1 POP JUMP JUMPDEST PUSH1 0x0 PUSH1 0x20 DUP3 ADD SWAP1 POP DUP2 DUP2 SUB PUSH1 0x0 DUP4 ADD MSTORE PUSH2 0x535 DUP2 PUSH2 0x4F9 JUMP JUMPDEST SWAP1 POP SWAP2 SWAP1 POP JUMP JUMPDEST PUSH32 0x57696E6E657220686173206265656E2063686F73656E2E204E6F206D6F726520 PUSH1 0x0 DUP3 ADD MSTORE PUSH32 0x62696464696E672E2041756374696F6E20636C6F736564000000000000000000 PUSH1 0x20 DUP3 ADD MSTORE POP JUMP JUMPDEST PUSH1 0x0 PUSH2 0x598 PUSH1 0x37 DUP4 PUSH2 0x407 JUMP JUMPDEST SWAP2 POP PUSH2 0x5A3 DUP3 PUSH2 0x53C JUMP JUMPDEST PUSH1 0x40 DUP3 ADD SWAP1 POP SWAP2 SWAP1 POP JUMP JUMPDEST PUSH1 0x0 PUSH1 0x20 DUP3 ADD SWAP1 POP DUP2 DUP2 SUB PUSH1 0x0 DUP4 ADD MSTORE PUSH2 0x5C7 DUP2 PUSH2 0x58B JUMP JUMPDEST SWAP1 POP SWAP2 SWAP1 POP JUMP INVALID LOG2 PUSH5 0x6970667358 0x22 SLT KECCAK256 0x2C 0x2C SWAP14 TIMESTAMP DUP7 0xC0 0xB6 EXTCODESIZE ADD 0x2C SMOD 0x49 ORIGIN PUSH18 0x5473E154EB7979668DD03053877AA15D72EF PUSH5 0x736F6C6343 STOP ADDMOD GT STOP CALLER "},"methodIdentifiers":{"bid()":"1998aeef"}}}}}